:100000000C94AD010C94D5010C94D5010C94D50140
:100010000C94D5010C94D5010C94D5010C94D50108
:100020000C94D5010C94D5010C94D5010C94D501F8
:100030000C94D5010C9432070C94D5010C94D50185
:100040000C941B0B0C94D5010C9459090C94A70922
:100050000C94D5010C94D5010C94D5010C94D501C8
:100060000C94D5010C94D5010E1F13131313131305
:1000700013131F0E060E1E060606060606061F1F93
:100080001E1F030303060C1818181F1F1E1F03034F
:10009000030E0E0303031F1E181818181B1F1F033F
:1000A000030303031F1F1818181E1F0303031F1E3B
:1000B0000E1F1818181E1F1313131F0E1F1F0303E4
:1000C00003060C18181818180E1F1313130E0E130E
:1000D00013131F0E0E1F1313131F0F0303031F0E03
:1000E0000000000000000000000000001F1F1B1B9C
:1000F0001B1B1B1B1B1B1F1F0C0C0C0C0C0C0C0CC0
:100100000C0C0C0C1F1F0303031F1F1818181F1FB4
:100110001F1F0303031F1F0303031F1F1B1B1B1BA7
:100120001B1F1F03030303031F1F1818181F1F03A0
:1001300003031F1F1F1F1818181F1F1B1B1B1F1F28
:100140001F1F030303030303030303031F1F1B1BDF
:100150001B1F1F1B1B1B1F1F1F1F1B1B1B1F1F03E7
:1001600003031F1F0000000000000000000000004B
:100170000E1F1B1B1B1B1B1B1B1B1F0E02060E0631
:100180000606060606061F1F0E1F030303060C18AD
:1001900018181F1F0E1F0303030E0E0303031F0E69
:1001A000030306060C0C1B1F030303031F1F181871
:1001B000181E0F0303031F0E0E1F1818181E1F1BF7
:1001C0001B1B1F0E1F1F030303060C1818181818FB
:1001D0000E1F1B1B1B0E0E1B1B1B1F0E0E1F1B1BA4
:1001E0001B1F0F0303031F0E000000000000000090
:1001F000000000001F111111111111111111111F17
:100200000404040404040404040404041F0101019C
:10021000011F10101010101F1F010101011F01010B
:100220000101011F11111111111F01010101010132
:100230001F101010101F01010101011F1F101010CD
:10024000101F11111111111F1F01010101010101E5
:10025000010101011F111111111F11111111111FA4
:100260001F111111111F01010101011F00000000E8
:1002700000000000000000000E11111111111111F9
:100280001111110E040C0404040404040404041FDA
:100290000E110101010204081010101F0E110101BE
:1002A000010E01010101110E11111111111F0101A6
:1002B000010101011F101010101E01010101110E9A
:1002C0000E111010101E11111111110E1F0101013C
:1002D00001020408101010100E111111110E11114D
:1002E0001111110E0E111111110F01010101110E49
:1002F00000000000000000000000000000000000FE
:10030000240027002A0000000000250028002B0000
:100310000000000023002600290004040404040453
:1003200004040202020202020303030303030102A4
:100330000408102040800102040810200102040873
:100340001020000000070002010000030406000066
:10035000000000000000E9028C0A11241FBECFEF4C
:10036000D8E0DEBFCDBF11E0A0E0B1E0E2E6F8E109
:1003700002C005900D92AC31B107D9F711E0ACE1A4
:10038000B1E001C01D92AE3FB107E1F713E0CAE54D
:10039000D3E004C02297FE010E942B0CC635D10782
:1003A000C9F70E94E20A0C942F0C0C940000CF9322
:1003B000DF93BC018230910510F462E070E0A091FF
:1003C000FC01B091FD01ED01E0E0F0E040E050E023
:1003D00021C0888199818617970769F48A819B815A
:1003E000309719F09383828304C09093FD0180932A
:1003F000FC01FE0134C06817790738F44115510536
:1004000019F08417950708F4AC01FE018A819B81DD
:100410009C01E9012097E9F641155105A9F1CA01AE
:10042000861B970B049708F4BA01E0E0F0E02AC0BD
:100430008D919C91119784179507F9F464177507AE
:1004400081F412968D919C911397309719F09383B4
:10045000828304C09093FD018093FC01FD013296DC
:100460004CC0CA01861B970BFD01E80FF91F619371
:10047000719302978D939C9340C0FD01828193817B
:100480009C01D9011097A1F68091FA019091FB018E
:10049000892B41F480910801909109019093FB010F
:1004A0008093FA0140910A0150910B0141155105C9
:1004B00041F44DB75EB78091060190910701481B4A
:1004C000590B2091FA013091FB01CA01821B930B59
:1004D0008617970780F0AB014E5F5F4F8417950733
:1004E00050F0420F531F5093FB014093FA01F90162
:1004F0006193719302C0E0E0F0E0CF01DF91CF9112
:100500000895CF93DF93009709F450C0EC01229730
:100510001B821A82A091FC01B091FD01109709F194
:1005200040E050E0AC17BD0708F1BB83AA83FE0191
:1005300021913191E20FF31FAE17BF0779F48D912E
:100540009C911197280F391F2E5F3F4F39832883C5
:1005500012968D919C9113979B838A834115510527
:1005600071F4D093FD01C093FC0120C012968D91CF
:100570009C911397AD01009711F0DC01D3CFFA01E4
:10058000D383C28321913191E20FF31FCE17DF078E
:1005900069F488819981280F391F2E5F3F4FFA0136
:1005A000318320838A819B8193838283DF91CF91E2
:1005B0000895FB01DC0102C001900D9241505040B2
:1005C000D8F70895DC0101C06D9341505040E0F729
:1005D00008958CE191E00E944E0408958CE191E031
:1005E0000E94210464E670E080E090E00E94890BA4
:1005F00008958CE191E00E94410408952F923F926A
:100600004F925F926F927F928F929F92AF92BF9222
:10061000CF92DF92EF92FF920F931F93CF93DF93CE
:100620003C01262EF42E302E4E2C5C2C2A51CC244C
:10063000DD248CE0289F40011124F601E80DF91D0E
:10064000E859FF4FE491122DC5E0D0E0AE2EBB2457
:10065000C5010C2E02C0959587950A94E2F780FF9C
:1006600007C0C301612F4F2D232D042DE52C06C09B
:10067000C301612F4F2D20E000E0EE240E946304AF
:1006800021971F5F8FEFCF3FD80711F70894C11C48
:10069000D11CF3948CE0C816D10479F6DF91CF9188
:1006A0001F910F91FF90EF90DF90CF90BF90AF9090
:1006B0009F908F907F906F905F904F903F902F9082
:1006C00008954F925F926F927F928F929F92AF9216
:1006D000BF92CF92DF92EF92FF920F931F93CF932F
:1006E000DF93882E792EF62E642EE9012801BE2C88
:1006F0009C2CF90101900020E9F73197E21BF30BE4
:10070000162F1A5F329760F420E30E2DEC2CCA2CC2
:100710000E94FE02882D972D612F462D28810BC047
:1007200028810E2DEC2CCA2C0E94FE02882D972DBC
:10073000612F462D29810E94FE02D2010D900020DA
:10074000E9F71197A419B5096F2D615F1F2D1B5E85
:10075000129780F4882D972D462D20E30B2DE92C40
:10076000CA2C0E94FE02882D972D612F462DF20182
:10077000208110C0882D972D462DF20120810B2D50
:10078000E92CCA2C0E94FE02882D972D612F462D40
:10079000F20121810E94FE028DE0D82EDF0C162D81
:1007A0001D5F882D972D6D2D412F2B2D092DEA2CA6
:1007B0000E946304FEE0FF0E882D972D6F2D412FC0
:1007C0002B2D0E9463041F5F882D972D6D2D412FC7
:1007D0002B2D0E946304882D972D6F2D412F2B2DDB
:1007E0000E9463041C5F882D972D6D2D412F2B2DAA
:1007F0000E946304882D972D6F2D412F2B2D0E9471
:1008000063041F5F882D972D6D2D412F2B2D0E9486
:100810006304882D972D6F2D412F2B2D0E9463048B
:10082000DF91CF911F910F91FF90EF90DF90CF90CC
:10083000BF90AF909F908F907F906F905F904F9000
:1008400008958F929F92AF92CF92EF920F931F9342
:100850004C0162E042E020E031E003E011E0EE24F0
:10086000CC24AA24A3940E946103C40160E00E94E6
:100870005C071F910F91EF90CF90AF909F908F905A
:1008800008950F931F93182F092F0E94BC07812FE3
:10089000902F0E949C071F910F910895AF92CF92C5
:1008A000EF920F936EE04FE020E108E051E1E52E7A
:1008B00039E0C32EAA24A3940E9433090F91EF902C
:1008C000CF90AF900895CF92DF92EF92FF920F9367
:1008D0001F93CF93DF93EC01522F8881681708F0A4
:1008E000E3C08A81481708F0DFC028859981A42FCA
:1008F000B0E070E0421708F074C0E985892F90E0FD
:10090000F0E03296EE0FFF1FEC0FFD1F9C01220F4F
:10091000331F820F931F6C01CA9EC001CB9E900DA6
:10092000DA9E900D1124860F971FA081B181A80F28
:10093000B91FFD01E20FF31F80818C7F808350FF80
:1009400009C0E981F0E0EE0FFF1FEA0FFB1F808175
:100950008160808300FF09C0E981F0E0EE0FFF1F96
:10096000EA0FFB1F8081826080839981E0FE06C0D0
:10097000FD01E90FF11D8081816005C0FD01E90FD6
:10098000F11D80818E7F8083E2E060E070E0C52E03
:10099000DD2410E0FF243C91337E3C934E2F50E049
:1009A000CA018C219D21892B11F034603C93CA012E
:1009B00080239123892B19F08C9188608C934E2190
:1009C0005F21452B19F08C9180618C938981EE0F0A
:1009D0006F5F7F4F6330710509F466C0A80FB11DCA
:1009E000DACFE985F0E03296EE0FFF1FEC0FFD1F26
:1009F00083E0989FC0011124A21BB1099C012A9F8A
:100A0000C0012B9F900D3A9F900D1124860F971FC8
:100A1000A081B181A80FB91F8C918C7F8C93998193
:100A200050FF06C0FD01E90FF11D8081826005C005
:100A3000FD01E90FF11D80818D7F808300FF03C0E0
:100A40008C9181608C93E0FE03C08C9182608C93CA
:100A5000E2E060E070E0C52EDD2410E0FF243C9170
:100A60003F713C934E2F50E0CA018C219D21892B70
:100A700011F030623C93CA0180239123892B19F035
:100A80008C9180648C934E215F21452B19F08C91C1
:100A900080688C938981EE0F6F5F7F4F63307105A3
:100AA00019F0A80FB11DDBCFDF91CF911F910F91EE
:100AB000FF90EF90DF90CF9008951F93CF93DF9337
:100AC000EC01ED85FE858081998D892B8083EB85F6
:100AD000FC858081988D892B80838885893018F4E6
:100AE00020E931E002C028EC30E04EA18EA18F5FFA
:100AF0008EA38EA18430F8F01EA28DA18F5F8DA3EE
:100B00009DA18885981708F454C01DA29A8591303C
:100B100021F48985981B99871A868985E3E0F0E09E
:100B2000E81BF109EE0FFF1FEC0FFD1F8081918183
:100B300098A78FA33EC08EA18130D9F58DA1EF85F6
:100B4000F8899A8D80FF04C08081892B808304C03E
:100B500080819095982390838DA1E989FA899B8D56
:100B600081FF04C08081892B808304C0808190959F
:100B7000982390838DA1EB89FC899C8D82FF04C012
:100B80008081892B808304C08081909598239083F5
:100B90008885893070F08DA1ED89FE899D8D83FF58
:100BA00004C08081892B808304C080819095982324
:100BB0009083AFA1B8A528583F4F02C0220F331F22
:100BC0004A95E2F72C5330403093870020938600FB
:100BD0001092850010928400ED85FE859081898DAC
:100BE000809589238083EB85FC859081888D809515
:100BF0008923808335B12F89232B8EA119818823E6
:100C000069F4812F90E0BD01680F791FEC01CC0FD2
:100C1000DD1FCA0FDB1F40E050E01EC10D900BB876
:100C200025B935B90D900BB825B935B90D900BB86C
:100C300025B935B90D900BB825B935B90D900BB85C
:100C400025B935B90D900BB825B935B90D900BB84C
:100C500025B935B90D900BB825B935B90D900BB83C
:100C600025B935B90D900BB825B935B90D900BB82C
:100C700025B935B90D900BB825B935B90D900BB81C
:100C800025B935B90D900BB825B935B90D900BB80C
:100C900025B935B90D900BB825B935B90D900BB8FC
:100CA00025B935B90D900BB825B935B90D900BB8EC
:100CB00025B935B90D900BB825B935B90D900BB8DC
:100CC00025B935B90D900BB825B935B90D900BB8CC
:100CD00025B935B90D900BB825B935B90D900BB8BC
:100CE00025B935B90D900BB825B935B90D900BB8AC
:100CF00025B935B90D900BB825B935B90D900BB89C
:100D000025B935B90D900BB825B935B90D900BB88B
:100D100025B935B90D900BB825B935B9103409F09E
:100D200080C00D900BB825B935B90D900BB825B919
:100D300035B90D900BB825B935B90D900BB825B95B
:100D400035B90D900BB825B935B90D900BB825B94B
:100D500035B90D900BB825B935B90D900BB825B93B
:100D600035B90D900BB825B935B90D900BB825B92B
:100D700035B90D900BB825B935B90D900BB825B91B
:100D800035B90D900BB825B935B90D900BB825B90B
:100D900035B90D900BB825B935B90D900BB825B9FB
:100DA00035B90D900BB825B935B90D900BB825B9EB
:100DB00035B90D900BB825B935B90D900BB825B9DB
:100DC00035B90D900BB825B935B90D900BB825B9CB
:100DD00035B90D900BB825B935B90D900BB825B9BB
:100DE00035B90D900BB825B935B90D900BB825B9AB
:100DF00035B90D900BB825B935B90D900BB825B99B
:100E000035B90D900BB825B935B90D900BB825B98A
:100E100035B90D900BB825B935B90D900BB825B97A
:100E200035B9B8A7AFA31AC0FB019191BF01929544
:100E300090738991880F880F8C70982BFD01E40FB7
:100E4000F51F80818295880F880F807C892B8BB954
:100E500025B935B94F5F5F4F411730F3DF91CF911F
:100E60001F9108951F920F920FB60F9211242F9386
:100E70003F934F935F936F937F938F939F93AF9322
:100E8000BF93EF93FF9380914501909146010E949B
:100E90005D0586B386BBFF91EF91BF91AF919F91A6
:100EA0008F917F916F915F914F913F912F910F9013
:100EB0000FBE0F901F9018951F93CF93DF93EC01F7
:100EC000162F2C813D818E819F812817390781F152
:100ED00081E08A8706C061E070E080E090E00E94D7
:100EE000890B8A858130B9F3113011F5A9854985BF
:100EF000B0E01296AA0FBB1FAC0FBD1F89812885D9
:100F0000829FC00111249C01220F331F280F391F1B
:100F1000E3E0F0E0E41BF109EE0FFF1FEC0FFD1F13
:100F2000608171818C9111969C91A9010E94D902D6
:100F3000DF91CF911F910895DC011996EC911997DB
:100F400011968C91119718962C911897829FC00139
:100F500011249C01220F331F280F391FF0E0329615
:100F6000EE0FFF1FEA0FFB1F8081918160E070E0B0
:100F7000A9010E94E2020895CF93DF93EC01198644
:100F80008985E3E0F0E0E81BF109EE0FFF1FEC0FAD
:100F9000FD1F8081918198A78FA3D0934601C093B4
:100FA00045018E8D61E00E94EA0B95B18F89809595
:100FB000892385B98F8D61E00E94EA0BEB85FC8562
:100FC0009081888D80958923808388A161E00E942B
:100FD000EA0BED85FE858081998D892B808389A11F
:100FE00061E00E94EA0BEF85F88990818A8D8095F7
:100FF000892380838AA161E00E94EA0BE989FA894A
:1010000090818B8D8095892380838BA161E00E94E4
:10101000EA0BEB89FC8990818C8D809589238083F4
:101020008885893058F08CA161E00E94EA0BED8937
:10103000FE8990818D8D8095892380838CEF8AB97C
:101040001BB882E08093800089E18093810084E670
:1010500090E0909387008093860080916F0081607C
:1010600080936F007894DF91CF9108955F926F9293
:101070007F928F929F92AF92BF92CF92DF92EF9228
:10108000FF920F931F93DF93CF93CDB7DEB73C0151
:10109000B42E922E502EDE2C2A89DC0111962C9330
:1010A00011972C93462F50E0CA01880F991F139671
:1010B0008C93139712968C93129718966C93840FB7
:1010C000951F30E0829F7001839FF00C929FF00C7F
:1010D0001124B1E08B1611F0870103C08701000FC6
:1010E000111FC8010E94D701F301958384830097E3
:1010F00009F4A9C060E070E0A8010E94E202D301F7
:1011000014968D919C911597B1E08B1611F48E0D6C
:101110009F1DF30197838683B1A292A253A2D68E1C
:10112000C78EA0A2ED2DF0E0E25DFC4FE491D3016B
:101130005796EC9357972C2D30E0F901E65EFC4F63
:10114000E491F0E0EE0FFF1FEA5FFC4F8591949170
:101150001C969C938E931B97225D3C4FF901C49083
:101160005896CC9258972A2D30E0F901E65EFC4F54
:10117000E491F0E0EE0FFF1FEA5FFC4F8591949140
:101180001E969C938E931D97225D3C4FF901A4906F
:101190005996AC9259972B2D30E0F901E65EFC4F41
:1011A000E491F0E0EE0FFF1FEA5FFC4F8591949110
:1011B00050969C938E931F97225D3C4FF90144916A
:1011C0005A964C935A97292D30E0F901E65EFC4F70
:1011D000E491F0E0EE0FFF1FEA5FFC4F85919491E0
:1011E00052969C938E935197225D3C4FF901249126
:1011F0005B962C935B97252D30E0F901E65EFC4F62
:10120000E491F0E0EE0FFF1FEA5FFC4F85919491AF
:1012100054969C938E935397225D3C4FF901049111
:101220005C960C935C9783E096968C9396971896B1
:101230008C911897815095968C9395971A961C923D
:101240001A9719961C92CF91DF911F910F91FF90E1
:10125000EF90DF90CF90BF90AF909F908F907F9056
:101260006F905F9008958F92AF92CF92EF920F930D
:10127000CF93DF93362F542F722FE02FFE2DAC2DFE
:101280008A2C0F9220E2CDB7DEB7298368E0432F86
:10129000252F072FEE2ECF2EAA2E0E9436080F9054
:1012A000DF91CF910F91EF90CF90AF908F900895F5
:1012B00008951F920F920FB60F9211242F933F9310
:1012C0004F938F939F93EF93FF938091C00082FD84
:1012D0001DC04091C60020918701309188012F5F89
:1012E0003F4F2F7330708091890190918A012817A8
:1012F000390771F0E0918701F0918801E95BFE4FB9
:101300004083309388012093870102C08091C600FA
:10131000FF91EF919F918F914F913F912F910F905E
:101320000FBE0F901F901895E091DB01F091DC014A
:10133000E05CFF4F8191919120813181821B930B61
:101340008F739070892B11F00E94580908951F9295
:101350000F920FB60F9211242F933F938F939F9369
:10136000EF93FF932091CB013091CC018091CD017F
:101370009091CE012817390731F48091C1008F7DFB
:101380008093C10014C0E091CD01F091CE01E557EA
:10139000FE4F20818091CD019091CE0101968F73F7
:1013A00090709093CE018093CD012093C600FF9161
:1013B000EF919F918F913F912F910F900FBE0F90C2
:1013C0001F901895DC011C96ED91FC911D97E05C37
:1013D000FF4F2191319180819181281B390B2F730F
:1013E0003070C9010895DC011C96ED91FC911D97A8
:1013F000E05CFF4F20813181E054F040DF01AE5BC3
:10140000BF4F8D919C9111972817390719F42FEF31
:101410003FEF07C08D919C91E80FF91F8081282F25
:1014200030E0C9010895DC011C96ED91FC911D97F7
:10143000E05CFF4F20813181E054F040DF01AE5B82
:10144000BF4F8D919C9111972817390719F42FEFF1
:101450003FEF10C08D919C911197E80FF91F2081EB
:101460008D919C91119701968F73907011969C931A
:101470008E9330E0C9010895DC0191968C9191978B
:10148000882339F05496ED91FC915597808186FF21
:10149000F9CF91961C920895CF93DF93EC01EE85DE
:1014A000FF85E05CFF4F20813181E054F0402F5FE9
:1014B0003F4F2F733070DF01AE5BBF4F8D919C911A
:1014C000119728173907D1F3E05CFF4F8081918194
:1014D000E054F040E80FF91F6083EE85FF85E05C83
:1014E000FF4F31832083EE89FF89208181E090E0E6
:1014F0000F8C02C0880F991F0A94E2F7282B2083D3
:1015000081E089A3EC89FD8980818064808381E00A
:1015100090E0DF91CF9108951092D2011092D10105
:1015200088EE93E0A0E0B0E08093D3019093D401E3
:10153000A093D501B093D60180E191E09093D001C2
:101540008093CF0187E491E09093DC018093DB01ED
:101550008BE891E09093DE018093DD0185EC90E0D3
:101560009093E0018093DF0184EC90E09093E2019E
:101570008093E10180EC90E09093E4018093E3019B
:1015800081EC90E09093E6018093E50182EC90E09D
:101590009093E8018093E70186EC90E09093EA0154
:1015A0008093E90184E08093EB0183E08093EC0178
:1015B00087E08093ED0185E08093EE0181E08093E8
:1015C000EF010895CF93DF930E94AF0B0E94F902C1
:1015D000C4E9D9E00E94EE022097E1F30E94940949
:1015E000F9CFCF92DF92EF92FF920F931F93CF9399
:1015F000DF937C016B018A01C0E0D0E00FC0D6010F
:101600006D916D01D701ED91FC910190F081E02D7C
:10161000C7010995C80FD91F0150104001151105C8
:1016200071F7CE01DF91CF911F910F91FF90EF9055
:10163000DF90CF9008951F920F920FB60F92112452
:101640002F933F938F939F93AF93BF938091F50117
:101650009091F601A091F701B091F8013091F90154
:101660000196A11DB11D232F2D5F2D3720F02D5781
:101670000196A11DB11D2093F9018093F50190936E
:10168000F601A093F701B093F8018091F1019091D8
:10169000F201A091F301B091F4010196A11DB11DD9
:1016A0008093F1019093F201A093F301B093F401C0
:1016B000BF91AF919F918F913F912F910F900FBE4E
:1016C0000F901F9018959FB7F8942091F1013091D9
:1016D000F2014091F3015091F40186B5A89B06C038
:1016E0008F3F21F02F5F3F4F4F4F5F4F9FBF542FD2
:1016F000432F322F2227280F311D411D511D82E01B
:10170000220F331F441F551F8A95D1F7B901CA0113
:101710000895EF92FF920F931F93CF93DF937B0176
:101720008C010E94630BEB010EC00E94630B6C1BCB
:101730007D0B685E7340C8F30894E108F108010965
:101740001109C851DC4FE114F1040105110569F7D5
:10175000DF91CF911F910F91FF90EF9008957894B2
:1017600084B5826084BD84B5816084BD85B58260A6
:1017700085BD85B5816085BDEEE6F0E08081816044
:101780008083E1E8F0E01082808182608083808144
:1017900081608083E0E8F0E0808181608083E1EB1C
:1017A000F0E0808184608083E0EBF0E08081816004
:1017B0008083EAE7F0E080818460808380818260BA
:1017C00080838081816080838081806880831092A3
:1017D000C1000895CF93DF93482F50E0CA01825D86
:1017E0009C4FFC013491465E5C4FFA018491882342
:1017F00069F190E0880F991FFC01E450FD4FA5911D
:10180000B491FC01EA5FFC4FC591D491662351F479
:101810002FB7F8948C91932F909589238C9388817E
:1018200089230BC0623061F42FB7F8948C91932F09
:10183000909589238C938881832B88832FBF06C042
:101840009FB7F8948C91832B8C939FBFDF91CF919E
:101850000895EE0FFF1F0590F491E02D0994F89480
:02186000FFCFB8
:101862003130003030002000FE0100000000000096
:0C1872004C0AF10AE209130AF3093C0ACF
:00000001FF
